:020000040800F2
:10000000FCFF00207D240000752400007524000002
:10001000752400007524000075240000752400007C
:10002000752400007524000075240000752400006C
:10003000752400007524000075240000752400005C
:10004000752400007524000075240000752400004C
:10005000752400007524000075240000752400003C
:10006000752400007524000075240000752400002C
:10007000752400007524000075240000752400001C
:10008000752400007524000075240000752400000C
:1000900075240000752400007524000075240000FC
:1000A00075240000752400007524000075240000EC
:1000B00075240000752400007524000075240000DC
:1000C00075240000752400007524000075240000CC
:1000D00075240000752400007524000075240000BC
:1000E00075240000752400007524000075240000AC
:1000F000752400007524000075240000752400009C
:10010000752400007524000075240000752400008B
:10011000752400007524000075240000752400007B
:10012000752400007524000075240000752400006B
:10013000752400007524000075240000752400005B
:10014000752400007524000075240000752400004B
:1001500081B000F218010A68C2F3400181F0010188
:10016000C9B2C8B201B0704781B000F214010A6888
:1001700000F218010968090442EA0101084601B0C9
:100180007047FFFF01490860704700BFA08122420D
:1001900001490860704700BFA481224201490860FC
:1001A000704700BFA881224201490860704700BF24
:1001B0009401214201490860704700BF9C8121429F
:1001C00001490860704700BF9881214201490860D9
:1001D000704700BF8001214201490860704700BF9D
:1001E000B481224201490860704700BF8801224261
:1001F00001490860704700BF900121420149086031
:10020000704700BFB001224201490860704700BF3B
:10021000AC01224201490860704700BFA801224298
:1002200001490860704700BF988121420149086078
:10023000704700BF9481224201490860704700BFA7
:100240009881224281B0CDF800E00B46FFF78CFF89
:1002500000EA03029A4240F2000200D10122D0B229
:10026000DDF800E001B0704781B0CDF800E04FF05C
:1002700000021949884207D118490B6818490A68D1
:1002800018490A601C460BE01749884207D11749F4
:100290000B6817490A6813490A601C4600E01446B7
:1002A00014490C6003461846FFF752FF70B9114914
:1002B000096851B12CB905200A4C2468A0470020D8
:1002C00005E0611E08460446FFE7ECE70120DDF883
:1002D00000E001B0704700BF00540040440100201E
:1002E00094010020900100200058004048010020A7
:1002F000980100204C01002001490860704700BFB0
:100300009C81214201490860704700BFAC812242B4
:1003100001490860704700BFA801224201490860F6
:10032000704700BFB881224201490860704700BF92
:100330008C01224201490860704700BFB08122420F
:1003400001490860704700BFB001224201490860BE
:10035000704700BFAC01224283B0CDF800E000F04E
:10036000FF031A09104603F00F02134614E0194A5E
:1003700002921FE0184A02921CE0184A029219E009
:10038000174A029216E0174A029213E0164A0292A6
:1003900010E0164A02920DE00028E8D00128E9D0CA
:1003A0000228EAD00328EBD00428ECD00528EDD0B1
:1003B0000628EED0012212B29A40ADF8042002982D
:1003C0000A46BDF8041000F0BFFCDDF800E003B001
:1003D000704700BF00080140000C014000100140C0
:1003E0000014014000180140001C014000200140A1
:1003F00001480068704700BF8C01002081B001688F
:10040000C1F3401001B0704782B0CDF800E0034660
:1004100019460191FFF7ECFF40F2E83100FB01F2D1
:1004200001990A601F490978C1F30311C8B21E4936
:1004300009180878C0B21A1D1968C140116019491D
:100440000988C1F3022188B2174909180878C0B297
:1004500003F20802191D0968C14011601149098899
:10046000C1F3C22188B2104909180878C0B203F25A
:100470000C02191D0968C14011600A490988C1F3BD
:10048000813188B2094909180978C8B203F210020B
:1004900003F20C010968B1FBF0F11160DDF800E036
:1004A00002B0704704100240402900005C2900009F
:1004B00083B0CDF800E003464FF0000026498B42A0
:1004C00006D126490C6826490A6826490A600BE0CD
:1004D00025498B4207D12549086825490A682149E1
:1004E0000A60044600E0044622490C60019402932D
:1004F0001846FFF7B9FE029B019C10B94FF6FF703A
:1005000025E00122196862F30821196003F2140141
:100510000A68C2F3402111B14FF6FF7017E025467B
:100520001C4615492046FFF78DFE78B91149096828
:1005300059B135B906200B4C2468A0474FF6FF701F
:1005400005E0691E08460546FFE7EAE70020DDF8FA
:1005500000E003B0704700BF005400404401002099
:100560009401002090010020005800404801002024
:10057000980100204C0100200100030081B00168B7
:10058000C1F3801001B0704781B0CDF800E00122C6
:1005900052B23E490A6000F268010B686FF00061D8
:1005A00003EA0102144603F00061C90E0B4602F093
:1005B0000041B1F1004F02D135490A6801E03549E7
:1005C0000A6804F47021090C0E464FF6FF7104EA24
:1005D00001010D4604F44011B1F5401F0DD16FF03B
:1005E000706102EA01010E462A490A686FF07061E3
:1005F0000A4028490A60324616E004F48011B1F539
:10060000801F09D14FF00301B140C94302EA010143
:1006100041F070610A4607E0610D090105FA01F138
:10062000C9430A4042F070622BB1610D090105FA1D
:1006300001F10A43FFE704F00041B1F1004F02D19C
:1006400013490A6001E013490A6040F2000A81463A
:100650004FEA8A0109EB01010968B1F1FF3F10D0AF
:1006600009F134014FEA8A03C91809680A4609EBFF
:100670000301096808461146FFF76EFE0AF1010AF8
:10068000E6E7DDF800E001B0704700BF000342423A
:100690001C0001400400014082B0CDF800E0029E41
:1006A0004FF00005564CA04206D1564C2768564CD8
:1006B0002568564C25600AE0554CA04206D1554CA1
:1006C0002768554C2568514C256000E02F46534C57
:1006D000276000F210054C00A4B22C60B946074612
:1006E000904635461E464E493846FFF7ABFD88B961
:1006F0004A4C24686CB1B9F1000F06D10420434C78
:100700002468A0474FF6FF7076E0A9F1010081460A
:10071000FFE7E8E70020019729463746019E7C1E47
:10072000A04226D206F2100508EB000424782C60C3
:100730003A4CD4F8009082460D463A493046FFF7CD
:1007400081FD88B9354C24686CB1B9F1000F06D130
:1007500004202E4C2468A0474FF6FF704CE0A9F10E
:1007600001008146FFE7E8E70AF101042046294637
:10077000D5E706F2100508EB000424782C60274C1E
:1007800027680D4628493046FFF75CFD70B9234CB9
:10079000246854B137B904201C4C2468A0474FF694
:1007A000FF7029E0781E0746FFE7EBE7012D05D132
:1007B0000125346865F3492434601CE00125346860
:1007C00065F308243460154C2768354617492846D8
:1007D000FFF738FD78B9114C24685CB137B90420B3
:1007E0000A4C2468A0474FF6FF7005E07C1E2046A7
:1007F0000746FFE7EAE70020DDF800E002B07047B7
:100800000054004044010020940100209001002089
:100810000058004048010020980100204C010020B1
:100820008200070080000700840007000100030029
:1008300081B00268C2F3401101B9FAE7011D0968ED
:1008400088B201B07047FFFF81B0194900EA010189
:10085000084600220EE0042022E0082020E01020BC
:100860001EE020201CE040201AE0802018E040F22A
:10087000001015E00F498842EDD00F498842ECD0B6
:100880000E498842EBD00E498842EAD00D49884291
:10089000E9D00D498842E8D00C498842E7D010469B
:1008A0000B49096841EA000209490A6001B0704732
:1008B00000FCFFFF00080140000C01400010014057
:1008C0000014014000180140001C014000200140BC
:1008D0001810024082B0CDF800E0CFB20146984631
:1008E000029B4FF000064FF00005C44CA14207D117
:1008F000C34CD4F80090C34C2568C34C25600BE072
:10090000C24CA14207D1C24C2068C24C2568BE4CE3
:100910002560814600E0A946BF4CC4F80090F4E190
:1009200001F210057C00A4B244F00104A4B22C60D2
:10093000019616464F46019A01F214042568C5F344
:10094000400464B9B44C246844B127B90320AE4CC8
:100950002468A047E2E1781E0746FFE7ECE70025A0
:100960000C6865F38A240C6001F21404206800BF4F
:1009700001F218042468240440EA04042046012BF0
:1009800005D101250C6865F349240C6004E00125BC
:100990000C6865F308240C609F4C256891469846C6
:1009A00037460E469D493046FFF74CFC68B99A4CD5
:1009B00024684CB125B90320934C2468A047ADE1CD
:1009C0006C1E20460546FFE7ECE707EB090506F23B
:1009D000100424682C70B8F1010F13D18E4C2168DB
:1009E00030460568C5F340245CB98B4C24683CB1A3
:1009F00021B90320844C2468A0478FE1491EFFE7FA
:100A0000EFE712E0844C216830460568C5F3002406
:100A10005CB9814C24683CB121B903207A4C24682C
:100A2000A0477BE1491EFFE7EFE777E101250C686E
:100A300065F38A240C6001250C6865F3CB240C60F7
:100A400001F210057C00A4B244F00104A4B22C60B1
:100A50004F4601F214042568C5F3400464B96E4C96
:100A6000246844B127B90320674C2468A04755E1A6
:100A7000781E0746FFE7ECE701F21404206800BF88
:100A800001F2180424682404204300250C6865F34F
:100A90008A240C60604C276801F214042568C5F3B1
:100AA000800464B95C4C246844B127B90320564CD7
:100AB0002468A04732E1781E0746FFE7ECE7012BE8
:100AC00005D101250C6865F349240C6004E001257B
:100AD0000C6865F308240C60951901F21004246871
:100AE0002C70741C151901F2100424682C70012B51
:100AF00014D1494C22680D68C5F3402464B9464CB2
:100B0000246844B122B903203F4C2468A04705E182
:100B1000501E0246FFE7EEE7084613E03E4C22680F
:100B20000D68C5F3002464B93B4C246844B122B974
:100B30000320354C2468A047F0E0501E0246FFE732
:100B4000EEE708460025046865F3CB240460E5E081
:100B500001250C6865F38A240C6001F210057C0005
:100B6000A4B244F00104A4B22C604646C8468946AB
:100B700017461D462A494846FFF764FB78B9264CBC
:100B800024685CB1B8F1000F04D103201E4C246826
:100B9000A047C3E0A8F101008046FFE7EAE7002193
:100BA000A8464A46B1463B46A9F10304A14222D2D7
:100BB000194C25688A4617461E4618493846FFF7DD
:100BC00041FB60B9144C246844B125B903200E4C94
:100BD0002468A047A2E0681E0546FFE7EDE706EBA4
:100BE0000A0507F2100424682C700AF1010421465A
:100BF00033463A46D8E7084C00F014B80054004099
:100C00004401002094010020900100200058004081
:100C100048010020980100204C0100204000030002
:100C200002000300276801930B46164642460199CD
:100C300006F214042568C5F3800464B9394C2468AD
:100C400044B127B90320384C2468A04766E0781ED9
:100C50000746FFE7ECE70025346865F38A24346033
:100C6000CD1806F2100424682C70581C2D4C2368F3
:100C70001746024606F214042568C5F3800464B9D9
:100C8000284C246844B123B90320274C2468A0478A
:100C900044E0581E0346FFE7ECE7012F07D101258A
:100CA000346865F3492434601046324621E001255A
:100CB000346865F3082434601A4CD4F80080174671
:100CC0000D461A493046FFF7BDFA78B9154C24682D
:100CD0005CB1B8F1000F04D10320134C2468A04785
:100CE0001CE0A8F101008046FFE7EAE7294632460A
:100CF00038460D1802F2100424682C70441C0D199B
:100D000002F2100424682C7008E0B8F1010F3FF4DF
:100D100007AEB8F1020F3FF489AE19E7DDF800E045
:100D200002B070474C010020900100200100030038
:100D300081B0CDF800E00348FFF77AFDDDF800E070
:100D400001B070470044004081B0CDF800E08CB2A3
:100D50001546774B00EA03031E461846FFF774FD5D
:100D6000B4F1FF0F0CD1734B9D4203D14FF03333DD
:100D70003360D9E0422D03D14FF044333360D3E0E8
:100D80004FF6FF739C4214D16A4B9D4207D14FF03E
:100D900033333360341D4FF033332360C4E0422DCE
:100DA00007D14FF044333360341D4FF04433236098
:100DB000BAE00021002005F001030BB100211DE085
:100DC00005F0020333B105F4C0730BB1082100E054
:100DD000042113E005F0040333B105F020030BB147
:100DE000042100E0002109E005F0080333B105F01B
:100DF00020030BB10C2100E00821FFE74E4B05EA70
:100E000003030BB1032009E005F400730BB10220CA
:100E100004E005F480630BB10120FFE705F00C034B
:100E20000BB10143FFE704F0FF039BB2002B3BD063
:100E3000376800201FFA84F832462E4608282CD244
:100E40004FF0010303FA00F408EA0403A34222D19D
:100E500085004FF00F03AB40DB4307EA030401FAC0
:100E600005F344EA03031D4606F48173B3F5817F5D
:100E700005D102F214044FF001038340236006F011
:100E80008203822B05D102F210044FF0010383404C
:100E900023602F46FFE7401CD0E717601FFA88F059
:100EA0000F463146164602E00F462946A0B2B0F181
:100EB000FF0F39D9331DD3F800800022082A30D221
:100EC00002F208044FF0010303FA04F400EA0403F9
:100ED000A34224D195004FF00F03AB40DB4308EA57
:100EE000030807FA05F348EA030801F48173B3F530
:100EF000817F07D106F2140502F208044FF00103C6
:100F0000A3402B6001F08203822B07D106F210056B
:100F100002F208044FF00103A3402B60FFE7521CCC
:100F2000CCE7331DC3F80080DDF800E001B0704766
:100F300000FCFFFF140008000008080081B0CDF895
:100F400000E00348FFF71AFBDDF800E001B070474E
:100F50000044004089B0CDF800E0834698B28C464A
:100F6000BDF824100A9E04ACADF80410ADF80800DA
:100F70002046FFF749FABDF80800BDF80410644C9C
:100F8000A34512D101256DB2624C2560624D634CC0
:100F90002560634D634C2560634D644C2560644D52
:100FA000644C2560079C039456E0634CA34512D122
:100FB00001256DB2614C2560614D584C2560614D35
:100FC000584C2560604D594C2560604D594C25604A
:100FD000069C039440E05E4CA34512D101256DB2FE
:100FE0005C4C25605C4D4D4C25605C4D4D4C256046
:100FF0005B4D4E4C25605B4D4E4C2560069C03942A
:101000002AE0594CA34512D101256DB2574C2560F9
:10101000574D424C2560574D424C2560564D434C30
:101020002560564D434C2560069C039414E0544CB7
:10103000A34511D101256DB2524C2560524D374C5C
:101040002560524D374C2560514D384C2560514D2F
:10105000384C2560069C0394ADF80410ADF80800E8
:101060003046FFF791FABDF80800BDF804100BF107
:10107000100500242C600BF110052C680C432C602B
:101080000BF10C0500242C6018B140F4806080B294
:10109000FFE70BF10C052C6804432C600BF10C06E8
:1010A0000125346865F34D3434600BF10C060125DD
:1010B000346865F3C30434600BF10C060125346811
:1010C00065F3820434600BF1140500242C60039D49
:1010D000192465434FEA8C04B5FBF4F76424B7FB8D
:1010E000F4F42601350964246C433C1B240104F20A
:1010F00032056424B5FBF4F404F00F0446EA04045A
:101100000BF10805A4B22C60DDF800E009B07047CF
:101110000038014038034242A5160000A801002013
:1011200065130000AC0100204D130000B001002049
:101130007D130000B401002000440040C40342427B
:1011400089160000310D0000991100003D0F0000CC
:1011500000480040C8034242C1160000D5140000F8
:10116000ED140000A5140000004C0040CC034242E6
:10117000F916000035150000051500001D150000CA
:1011800000500040D0034242DD1600008D140000E4
:10119000E9130000D113000081B0CDF800E003484E
:1011A000FFF72CF9DDF800E001B070470044004083
:1011B00088B0CDF800E00E46554B98420DD1012481
:1011C00064B2544B1C60544C544B1C60544C554BF3
:1011D0001C60554C554B1C600FE0554B98420CD190
:1011E000012464B2534B1C60534C4C4B1C60534C59
:1011F0004C4B1C60524C4D4B1C60019602901046AB
:10120000FFF7C2F90298019E031D1B689CB26FF0A4
:101210003F0304EA03039DB203AB01901846FFF7B6
:10122000F3F80198059F059C464BB4FBF3F399B284
:101230009BB245EA0304A4B2031D1C6000240368AA
:1012400064F30003036000223F4B9E4212D87300F8
:10125000B7FBF3F4A4B2042C02D204231C46FFE72C
:1012600042EA04039AB200F220044B1C9BB22360B2
:1012700091B23FE0032306FB03F4B7FBF4F31FFA3C
:1012800083F8192306FB03F5B7FBF5F31FFA83F97F
:1012900008FB04F409FB05F33C1BFB1A9C4205D236
:1012A00003237343B7FBF3F4A4B206E0192373439B
:1012B000B7FBF3F4A4B244F4804440F6FF7304EAAD
:1012C000030313B944F00104FFE744F400439BB265
:1012D0001A4392B200F2200540F22C1301FB03F4F2
:1012E000A4B240F2E833B4FBF3F39BB25B1C9BB2B5
:1012F0002B6091B200F21C031960002303600124EB
:10130000036864F300030360DDF800E008B0704791
:1013100000540040D4034242BD1400009C01002050
:1013200049140000A0010020AD130000A40100201A
:1013300000580040D80342429513000025140000D5
:101340000114000040420F00A086010081B0CDF8DA
:1013500000E00348FFF752F8DDF800E001B0704705
:101360000038014081B0CDF800E00348FFF760FA93
:10137000DDF800E001B070470038014081B0CDF8E1
:1013800000E00348FFF7FAF8DDF800E001B070472D
:101390000038014081B0CDF800E00348FFF788F83D
:1013A000DDF800E001B070470058004081B0CDF892
:1013B00000E008B413460A46C1B20448FFF76CF9CE
:1013C00001B0DDF800E001B0704700BF00540040FC
:1013D00081B0CDF800E00348FFF7D0F8DDF800E079
:1013E00001B070470050004081B0CDF800E00348E4
:1013F000FFF704F8DDF800E001B07047005000404E
:1014000081B0CDF800E008B413460A46C1B20448E2
:10141000FFF742F901B0DDF800E001B0704700BF0E
:101420000058004081B0CDF800E008B413460A46E9
:10143000C1B20448FFF74EFA01B0DDF800E001B098
:10144000704700BF0058004081B0CDF800E008B4FC
:1014500013460A46C1B20448FFF73CFA01B0DDF872
:1014600000E001B0704700BF0054004081B0ADF80B
:1014700000100146BDF800000B68C3F3C01202B9AA
:10148000FAE70A1D106001B07047FFFF81B0CDF888
:1014900000E00348FFF7CCF9DDF800E001B0704749
:1014A0000050004081B0CDF800E00348FFF766F837
:1014B000DDF800E001B070470048004081B0CDF891
:1014C00000E00348FEF7F4FFDDF800E001B07047EC
:1014D0000054004081B0CDF800E00348FFF7A8F9C0
:1014E000DDF800E001B070470048004081B0CDF861
:1014F00000E00348FEF782FFDDF800E001B070472E
:101500000048004081B0CDF800E00348FEF776FFC8
:10151000DDF800E001B07047004C004081B0CDF82C
:1015200000E00348FFF72AF8DDF800E001B070475B
:10153000004C004081B0CDF800E00348FFF778F997
:10154000DDF800E001B07047004C004082B0CDF8FB
:1015500000E040F20004ADF80440044C2468A047C9
:10156000BDF90400DDF800E002B07047BC010020C6
:101570004DF2BF47C0F201077F1EFDD100BF00BF83
:1015800000BF00BF00BF704782B0CDF800E040F25E
:101590000004ADF80440054C2468A047BDF90440A0
:1015A000044320B2DDF800E002B07047C40100201F
:1015B00081B0CDF800E04FF0420289B2FFF7C4FBE2
:1015C000DDF800E001B0704781B0CDF800E0019D8A
:1015D0002C4610B408B493B28AB201460348FFF710
:1015E000B9FC02B0DDF800E001B0704700380140FE
:1015F00082B0CDF800E040F20004ADF80440064CA3
:101600002468A047BDF9041041EA000000B2DDF8EB
:1016100000E002B0704700BFB801002081B0CDF8F3
:1016200000E0019D2C4610B408B493B28AB2014682
:101630000348FFF78FFC02B0DDF800E001B070470F
:101640000044004081B0CDF800E00A46014603485E
:10165000FFF7AEFDDDF800E001B070470054004038
:1016600081B0CDF800E0019D2C4610B408B493B2CF
:101670008AB201460348FFF76DFC02B0DDF800E0D6
:1016800001B070470048004081B0CDF800E081B261
:101690000348FFF7EBFEDDF800E001B0704700BF44
:1016A0000044004081B0CDF800E081B20348FFF76C
:1016B000DDFEDDF800E001B0704700BF00380140FA
:1016C00081B0CDF800E081B20348FFF7CFFEDDF82E
:1016D00000E001B0704700BF0048004081B0CDF885
:1016E00000E081B20348FFF7C1FEDDF800E001B081
:1016F000704700BF0050004081B0CDF800E081B2DB
:101700000348FFF7B3FEDDF800E001B0704700BF0B
:10171000004C004081B0CDF800E0044A89B2FFF7E8
:1017200013FBDDF800E001B0704700BF14000800B3
:1017300000F230011C310A6801490A60704700BF9D
:10174000C801002082B0CDF800E001AA1070521C40
:101750001170FFF74DFF01AB054A127819460123BE
:10176000D0B20222FFF710FFDDF800E002B07047B0
:10177000C001002082B0CDF800E001A90870FFF799
:1017800037FF01AA0E4909780123C8B21146012288
:10179000FFF7FAFEFFF7ECFEFFF72AFF0DF1050257
:1017A000074909780123C8B211460122FFF7CEFE8E
:1017B0000DF105010978C8B2DDF800E002B070470C
:1017C000C0010020026806490A60011D0A68054937
:1017D0000A6000F208010A6803490A60704700BF06
:1017E000B8010020C4010020BC01002081B0CDF868
:1017F00000E00178CCB2A0B2034C2468A0470020DE
:10180000DDF800E001B070478801002081B0CDF81C
:1018100000E0A9E0012905D140F210016548FFF779
:10182000C7FE04E040F210016248FFF773FFBBE01F
:10183000012905D140F204015F48FFF7B9FE04E039
:1018400040F204015C48FFF765FFADE0012905D1D6
:1018500042F200015948FFF7ABFE04E042F20001FA
:101860005648FFF757FF9FE0012905D140F200419C
:101870005148FFF79DFE04E040F200414E48FFF75B
:1018800049FF91E0012905D140F600014A48FFF7E0
:101890008FFE04E040F600014748FFF73BFF83E07E
:1018A000012905D141F200014348FFF781FE04E020
:1018B00041F200014048FFF72DFF75E0012905D1F5
:1018C00040F201013B48FFF773FE04E040F20101E2
:1018D0003848FFF71FFF67E0012905D140F20041BA
:1018E0003648FFF765FE04E040F200413348FFF759
:1018F00011FF59E0012905D140F200212F48FFF7DF
:1019000057FE04E040F200212C48FFF703FF4BE0B4
:10191000012905D140F200112848FFF749FE04E0F3
:1019200040F200112548FFF7F5FE3DE0012905D101
:1019300040F240012248FFF73BFE04E040F2400144
:101940001F48FFF7E7FE2FE0012905D140F2800193
:101950001B48FFF72DFE04E040F280011848FFF716
:10196000D9FE21E0012020E000283FF453AF0128F8
:101970003FF45EAF02283FF469AF03283FF474AF31
:1019800004283FF47FAF05283FF48AAF06283FF4D0
:1019900095AF0728A0D00828ACD00928B8D00A28CD
:1019A000C4D00B28D0D0DDE70020DDF800E001B086
:1019B000704700BF000801400010014000140140C2
:1019C000000C014081B0CDF800E0094902B440F2BA
:1019D000000340F2000240F20001FFF71FFE01B0D9
:1019E000044A05490A600020DDF800E001B07047B4
:1019F0009C270000891600008801002081B00A465B
:101A000081B200208DB21146052805D20B18202284
:101A10001A70401CC0B2F7E70B1800221A70401E63
:101A2000C0B20C180A23B5FBF3F203FB125292B2B8
:101A3000303222700A22B5FBF2F292B295B202B9AC
:101A400002E0401EC0B2ECE701B07047A086010082
:101A500041F6FF27C0F2B7077F1EFDD100BF00BFD0
:101A600000BF00BF00BF704781B0CDF800E0016843
:101A700008460449FFF7E6FD0020DDF800E001B06C
:101A8000704700BF0828000081B0CDF800E0016871
:101A900008460449FFF7D6FD0020DDF800E001B05C
:101AA000704700BF0828000081B0CDF800E0094968
:101AB00002B440F2000340F2000240F20001FFF7DE
:101AC000CFFD01B0044A05490A600020DDF800E0BE
:101AD00001B0704774280000C11600008801002082
:101AE00081B0CDF800E0094902B440F2000340F2B1
:101AF000000240F20001FFF767FD01B0044A05490A
:101B00000A600020DDF800E001B0704730270000D7
:101B1000A51600008801002081B0CDF800E0A9E002
:101B2000012905D140F220016548FFF741FD04E09D
:101B300040F220016248FFF7EDFDBBE0012905D12D
:101B400040F208015F48FFF733FD04E040F208016E
:101B50005C48FFF7DFFDADE0012905D144F200014B
:101B60005948FFF725FD04E044F200015648FFF70D
:101B7000D1FD9FE0012905D140F200415148FFF716
:101B800017FD04E040F200414E48FFF7C3FD91E02D
:101B9000012905D140F600014A48FFF709FD04E09C
:101BA00040F600014748FFF7B5FD83E0012905D164
:101BB00041F200014348FFF7FBFC04E041F2000161
:101BC0004048FFF7A7FD75E0012905D141F200016A
:101BD0003D48FFF7EDFC04E041F200013A48FFF711
:101BE00099FD67E0012905D140F600013648FFF76D
:101BF000DFFC04E040F600013348FFF78BFD59E0BD
:101C0000012905D140F240012F48FFF7D1FC04E043
:101C100040F240012C48FFF77DFD4BE0012905D142
:101C200040F220012848FFF7C3FC04E040F2200105
:101C30002548FFF76FFD3DE0012905D140F2400145
:101C40002248FFF7B5FC04E040F240011F48FFF7CF
:101C500061FD2FE0012905D140F280011B48FFF70B
:101C6000A7FC04E040F280011848FFF753FD21E093
:101C7000012020E000283FF453AF01283FF45EAF7D
:101C800002283FF469AF03283FF474AF04283FF4FF
:101C90007FAF05283FF48AAF06283FF495AF0728A9
:101CA000A0D00828ACD00928B8D00A28C4D00B2866
:101CB000D0D0DDE70020DDF800E001B0704700BFC4
:101CC000000801400010014000140140000C0140D8
:101CD00081B0CDF800E0094902B440F2000340F2BF
:101CE000000240F20001FFF799FC01B0044A0549E7
:101CF0000A600020DDF800E001B070479C2700007A
:101D0000891600008801002083B0CDF800E002466B
:101D100010460D228DF808200A228DF809201FE0B8
:101D2000FFF764FD23E002782AB10190FFF75EFD22
:101D30000198401CF7E71AE002782AB10190FFF7FA
:101D400055FD0198401CF7E702AA1046FFF74EFD2B
:101D50000DF109021046FFF749FD08E0062007E0F3
:101D60000029DDD00129DED00229E5D0F6E70020E8
:101D7000DDF800E003B0704744F67F77C0F2120749
:101D80007F1EFDD100BF00BF00BF00BF00BF704776
:101D900081B0CDF800E001214020FFF7D3FC012104
:101DA0004120FFF7CFFC02214220FFF7CBFC672147
:101DB0004320FFF7C7FC67214420FFF7C3FC6721DE
:101DC0004520FFF7BFFCE0214620FFF7BBFCE021E8
:101DD0004720FFF7B7FCD0214820FFF7B3FC0621CE
:101DE0004920FFF7AFFC06214A20FFF7ABFC062194
:101DF0004B20FFF7A7FC01214C20FFF7A3FC01219A
:101E00004D20FFF79FFC06214E20FFF79BFC06218B
:101E10004F20FFF797FC80215020FFF793FC012112
:101E20005120FFF78FFCAA215220FFF78BFCB02135
:101E30005320FFF787FC8C215420FFF783FC1821E7
:101E40005520FFF77FFC18215620FFF77BFC192156
:101E50005720FFF777FC32216020FFF773FC4E21FB
:101E60006120FFF76FFC32216220FFF76BFC4E21EF
:101E70006320FFF767FC28216420FFF763FC202123
:101E80006520FFF75FFC16216620FFF75BFC202131
:101E90006720FFF757FC28216820FFF753FC042137
:101EA0007020FFF74FFC11218020FFF74BFC1E2113
:101EB0008120FFF747FC32218220FFF743FC4E21AF
:101EC0008320FFF73FFC03219020FFF73BFC5021CC
:101ED0009120FFF737FC00219220FFF733FC4821C7
:101EE0009320FFF72FFC00219420FFF72BFC1921F2
:101EF0009520FFF727FC19219620FFF723FC552199
:101F0000A020FFF71FFC0021C020FFF71BFC0621CB
:101F1000C120FFF717FC0021C220FFF713FC0021AE
:101F2000C320FFF70FFC2921D020FFF70BFC7F21F6
:101F3000D120FFF707FCC321D220FFF703FC2821A3
:101F4000D720FFF7FFFBFFF783FDDDF800E001B0CE
:101F50007047FFFF82B0CDF800E001A90870FFF7DD
:101F600047FB01AA104909780023C8B21146012293
:101F7000FFF70AFB0DF105020B4909780123C8B2EE
:101F800011460222FFF7E2FA0DF10503591C097808
:101F9000C8B2020292B2197842EA010188B2DDF8B1
:101FA00000E002B0704700BFC001002081B0CDF852
:101FB00000E00E46002183B2002805DA01214042EC
:101FC00080B280B28FB201E098B28FB23146FFF793
:101FD00015FD06213446B8B2002908D963184A1EF7
:101FE00092B2A21812781A70491E89B2F4E7202220
:101FF000227070B1002081B2204642181278202A47
:1020000002D1491C89B2F8E74A1E92B283182D22E8
:102010001A70DDF800E001B07047FFFF82B0CDF824
:1020200000E00020FFF7A6FB8DF804000120FFF779
:10203000A1FB8DF805000220FFF79CFBC1B29DF8C3
:102040000400462801D001200AE09DF80500092877
:1020500001D0012004E0822901D0012000E000200D
:10206000DDF800E002B0704781B0CDF800E011E08B
:102070000846FFF719FD16E00846FFF729FE12E0B3
:102080000846FFF72DFD0EE00846FFF79BFC0AE02F
:10209000012008E00028EBD00128EDD02028EFD067
:1020A0003028F1D0F4E7DDF800E001B07047FFFF21
:1020B00081B0CDF800E08B4609E05846FFF7D4FC2C
:1020C0000AE05846FFF7E0FC06E0012004E00028A3
:1020D000F3D00128F5D0F8E7DDF800E001B0704753
:1020E00081B0CDF800E00446054B1A700846FFF7B2
:1020F00069FB2046FFF71CFBDDF800E001B07047EC
:10210000C001002081B0CDF800E01920FFF732FBBC
:10211000C1B200F00300C0B238B101F00100C0B29A
:1021200008B9012002E0022000E00020DDF800E014
:1021300001B0704781B0CDF800E05FFA81F95FFA35
:1021400082FA0FE05FFA8AF15FFA89F0FFF75EFB2F
:102150000DE05FFA8AF15FFA89F0FFF7DDFC06E037
:10216000012004E00028EDD00128F2D0F8E7DDF8E6
:1021700000E001B07047FFFF82B0CDF800E00190B1
:102180001620FFF7F7FAC3B200F00F0201990A70A8
:1021900003F08001C9B209B9012000E00020DDF898
:1021A00000E002B07047FFFF81B01548006840F0C2
:1021B0000101134801601349134801601048016888
:1021C000124801400E4801600D4801686FF48020FC
:1021D00001400B4801600C4801686FF4FE000140AB
:1021E00009480160064801686FF0A05001400448AA
:1021F00001604FF000010648016001B0704700BF68
:10220000001002400000FFF004100240FFFFF6FE45
:102210002C10024081B04FF000094FF0000CBDEBD4
:102220000A0F04DCBDEB0B0F01DBD446EA464BF88A
:10223000049BBBEB0A0FFAD1BCEB0A0F05DDE246AB
:10224000D9F800B00BF1040BF1E701B07047FFFFC4
:1022500081B0CDF800E0012207210020FFF76AFFDE
:102260000E4801460020FFF723FF42F28051202054
:10227000FFF7FAFE0A480221FFF746FD44F67F7792
:10228000C0F2120700BF00BF7F1EFDD100BF00BF1C
:1022900000BFDDF800E001B0704700BF4C1A00003D
:1022A0000000002081B0CDF800E044220A490B482C
:1022B000FFF716FF0A480221FFF726FDFFF7AEFEE3
:1022C000FFF766FDFFF758FD06480221FFF71CFDEA
:1022D000DDF800E001B0704750290000E028000060
:1022E000150000203E00002081B0CDF800E04548F8
:1022F0000221FFF709FD44480221FFF705FD1320E5
:10230000FFF738FA4149087000F00200C0B220B16E
:102310003F480121FFF7F8FC03E03E480121FFF7A9
:10232000F3FC1420FFF716FE3B49088000B23B493E
:10233000FFF73CFE01213948FFF7E6FC3848012150
:10234000FFF7E2FC3748FFF717FF3749087001280D
:1023500004D136480121FFF7D7FC03E034480121BE
:10236000FFF7D2FC2F4800782C49FFF71FFE012110
:102370002A48FFF7C9FC2F480121FFF7C5FC1720A9
:10238000FFF7E8FD2449088000B22449FFF70EFE5C
:1023900001212248FFF7B8FC27480121FFF7B4FCD0
:1023A000FFF7B0FE2549087060B124480078012885
:1023B00004D123480121FFF7A7FC03E021480121B4
:1023C000FFF7A2FC1A20FFF7C5FD1349088000B2F1
:1023D0001249FFF7EBFD01211048FFF795FC1A4861
:1023E0000221FFF791FC45F2FF07C0F2252700BF4D
:1023F00000BF7F1EFDD100BF00BF00BFDDF800E0C1
:1024000001B0704758000020A200002050010020B9
:10241000EC000020F70000205201002054010020B1
:102420000201002086010020510100200801002047
:10243000130100201E01002025010020870100203B
:102440002B010020350100203F01002081B01CF845
:10245000019B0BF8019BBBEB0A0FF8D101B0704751
:1024600081B002490248016001B070474019010083
:102470008C01002081B0FEE701B0704700F00EF83B
:1024800000F0AEFAFFF7ECFF00F06AFAFFF7E0FEAB
:10249000FFF708FFFFF728FFFCE7FEE781B0CDF864
:1024A00000E0464A464B474C47494BF68030814254
:1024B00006D94648006840F002014448016011E036
:1024C00045F6C050814206D94048006840F00101FD
:1024D0003E48016006E03D4801686FF0070001409A
:1024E0003A480160FFF760FE3948036039480460EC
:1024F000394802EA00013948016002F0010040B1A8
:1025000019463648006800F00200002800D1F8E7BC
:1025100000E0194602F4803040B10B462F480068B5
:1025200000F40030002800D1F8E700E00B4602F08C
:10253000805068B12948006840F080512748016008
:102540002648006800F00050002800D1F8E7FFE7B7
:1025500002F0806078B12148006840F080611F4837
:10256000016011461A461D48006800F0006000280E
:1025700000D1F8E701E011461A4601F0807070B111
:102580001648006840F080711448016011461348F5
:10259000006800F0007000B9F9E70A46FFE70C4850
:1025A000006800F00C01900000F00C00814200D0A7
:1025B000F5E7DDF800E001B0704700BF81000105DC
:1025C00002841D0044060100401901000020024061
:1025D000041002402C100240FFFF0F0000100240C8
:1025E000202D2D2D2053797374656D20496E6974EB
:1025F000202D2D2D002D2D2D2D20496E6974616CFF
:10260000697A61696F6E20616E6420636F6E6669BE
:102610006775726174696F6E202D2D2D20002D2D30
:102620002D205374617274206D6561737572656DD0
:10263000656E74202D2D2D005F5F5F5F5F5F5F5FB4
:102640005F5F5F5F5F5F5F5F5F5F5F5F5F5F5F5F9A
:102650005F5F5F5F5F5F5F5F5F5F5F5F5F5F5F5F8A
:102660005F5F5F5F5F5F5F5F5F5F5F5F5F5F5F5F7A
:102670005F5F5F5F5F5F5F5F5F5F5F5F5F5F5F5F6A
:102680005F007C20544F55434820207C202054205C
:102690002D20554920207C20414D4249454E542053
:1026A0007C20414C532052414E4745207C20204104
:1026B0004C5320554920207C202048414C4C202060
:1026C0007C2048414C4C205549207C007C202059DE
:1026D00045532020207C007C2020204E4F202020AD
:1026E0007C00202020207C0020204441524B2020D0
:1026F000207C00204C494748542020207C0020208A
:102700002020207C00202020207C00204E4F52548E
:102710004820207C0020534F55544820207C002026
:1027200020207C00000000000000000000000000ED
:10273000090000000A000000FFFFFFFF000000008A
:102740000000000000000000000000000000000089
:102750000000000000000000000000000000000079
:102760000000000018080000180000000000000031
:102770000000000000000000000000000000000059
:102780000000000000000000000000000000000049
:102790000000000000000000040000003500000000
:1027A00036000000FFFFFFFF0000000000000000F7
:1027B0000000000000000000000000000000000019
:1027C0000000000000000000000000000000000009
:1027D00018080000180000000000000000000000C1
:1027E00000000000000000000000000000000000E9
:1027F00000000000000000000000000000000000D9
:10280000000000000800000816000000170000008B
:10281000FFFFFFFF000000000000000000000000BC
:1028200000000000000000000000000000000000A8
:102830000000000000000000000000002808000068
:102840002808000000000000000000000000000058
:102850000000000000000000000000000000000078
:102860000000000000000000000000000000000068
:10287000020000003800000039000000FFFFFFFFE9
:102880000000000000000000000000000000000048
:102890000000000000000000000000000000000038
:1028A00000000000000000001808000018000000F0
:1028B0000000000000000000000000000000000018
:1028C0000000000000000000000000000000000008
:1028D00000000000000000000000000030001408AC
:1028E000F1010000E5010000D9010000150200001F
:1028F00009020000FD010000CD0100009D01000063
:102900009101000085010000C1010000B501000037
:10291000FFFFFFFFFFFFFFFFFFFFFFFFFFFFFFFFC7
:10292000FFFFFFFFFFFFFFFFFFFFFFFFFFFFFFFFB7
:10293000FFFFFFFFFFFFFFFFFFFFFFFFFFFFFFFFA7
:102940000000000001020304010203040607080955
:10295000BD140000AD130000491400000204060875
:1029600000B5DFF814B0DFF814A0DFF814C0FFF7EB
:102970006DFD00BD704700BF000000205001002029
:10298000E0250000FFFFFFFFFFFFFFFFFFFFFFFF4E
:10299000FFFFFFFFFFFFFFFFFFFFFFFFFFFFFFFF47
:1029A000FFFFFFFFFFFFFFFFFFFFFFFFFFFFFFFF37
:1029B000FFFFFFFFFFFFFFFFFFFFFFFFFFFFFFFF27
:1029C000FFFFFFFFFFFFFFFFFFFFFFFFFFFFFFFF17
:1029D000FFFFFFFFFFFFFFFFFFFFFFFFFFFFFFFF07
:1029E00000B5DFF810B0DFF810A0FFF713FC00BD52
:1029F000704700BF00000020CC010020FFFFFFFF58
:00000001FF
