:100000008CEF0FF00000000000EF00F00000000097
:0A0010000000000000000000F3D71C
:0E001C00020109B102D08B9801D08B8812002E
:0E002A00020109B102D08B9601D08B86120024
:0E003800020109B102D08D9601D08D86120012
:0E004600020109B102D0899401D08984120010
:0E005400020109B102D08B9C01D08B8C1200EE
:0E006200020109B102D08B9401D08B841200F0
:0E007000020109B102D08B9A01D08B8A1200D6
:0E007E00020109B102D08B9E01D08B8E1200C0
:0E008C00020109B102D08A9201D08A821200CC
:0E009A00020109B102D08D9401D08D841200B4
:0E00A800020109B102D08F9201D08F821200A6
:0E00B600020109B102D08F9401D08F84120094
:0E00C400020109B102D08B9801D08B88120086
:0E00D200020109B102D08B9601D08B8612007C
:0E00E000020109B102D08A9401D08A84120074
:0E00EE00020109B102D08B9801D08B8812005C
:0E00FC00020109B102D08B9601D08B86120052
:0E010A00020109B102D08F9001D08F80120047
:0E011800020109B102D08B9A01D08B8A12002D
:0E012600020109B102D08B9801D08B88120023
:0E013400020109B102D08B9601D08B86120019
:0E014200020109B102D08B9201D08B82120013
:0E015000020109B102D08B9A01D08B8A1200F5
:0E015E00020109B102D08D9001D08D801200F7
:10016C000F0121B302D00000FBD709C21CFF120003
:0E017C00ACB202D00000FCD709C2ADFF1200E9
:0E018A00020109B102D08B9001D08B801200CF
:0E019800020109B102D0899001D089801200C5
:0E01A600020109B102D08A9001D08A801200B5
:0E01B400020109B102D08D9201D08D8212009D
:0E01C200020109B102D0899801D0898812008B
:0E01D000020109B102D08B9801D08B88120079
:0E01DE00020109B102D08B9601D08B8612006F
:0E01EC00020109B102D0899201D0898212006D
:0E01FA00020109B102D08B9C01D08B8C120047
:0E020800020109B102D08B9E01D08B8E120034
:0E021600020109B102D08B9801D08B88120032
:0E022400020109B102D08B9601D08B86120028
:1002320068B409D01F0E6614016E0150000A03E172
:0A024200010E006E01D0006A1200E8
:10024C00F250026EF29E0500FF6A0150FE6E0050E5
:08025C00FD6E02BEF28E1200DD
:10026400C7B409D01F0EC514016E0150000A03E182
:0A027400010E006E01D0006A1200B6
:0A027E00000EA4BA010E006E12007B
:0C028800000E0F0121B3010E006E1200E9
:0A029400000E80B0010E006E120093
:0A029E00000E82B6010E006E120081
:0A02A800000E84B0010E006E12007B
:0A02B200000E82B0010E006E120073
:0A02BC00000E82BA010E006E12005F
:1002C6001AC105F21BC106F21CC107F21DC108F2D4
:1002D6000201036B046B0451120802E103518E08FC
:1002E60008E3A4DF005201E004D00201034B042B13
:1002F600F2D70201120E045D02E18F0E035D03E3E5
:100306007B0E006E26D0668066A022D001011A51AF
:100316001B111C111D111BE00201055106110711CD
:1003260008110EE1B3C1E1FFB4C1E2FF050EE66EAE
:10033600B1C100F0B2C101F086DF010E006E09D036
:10034600010E0201055F000E065B075B085BDCD74A
:04035600006A120027
:0A035A00000E82B4010E006E1200C6
:10036400AECF01F0ABA202D0AB98AB8801C000F0D5
:02037400120075
:100376001DCF01F00F0122A302D02299228901C0CC
:0403860000F0120071
:0A038A00000EACB2010E006E12006E
:0A039400000E9EBA010E006E12006A
:0A039E00000E80B8010E006E120080
:0A03A800000E80B2010E006E12007C
:0A03B200000E82B8010E006E12006A
:0A03BC00000E82B8010E006E120060
:0A03C600000E82B6010E006E120058
:0A03D000000E84B2010E006E120050
:0A03DA00000E82B6010E006E120044
:0A03E400000E82B2010E006E12003E
:0A03EE00000E82BA010E006E12002C
:0A03F800000E82B8010E006E120024
:0A040200000E82BC010E006E120015
:0A040C00000E82BE010E006E120009
:0A041600000E81B0010E006E12000E
:0A042000000E81B2010E006E120002
:10042A00FCC003F2FDC004F2FEC005F2FFC006F2F2
:10043A009E96C5869EB620D00001FC51FD11FE1184
:10044A00FF1119E0020103510411051106110CE113
:10045A009EC1E1FF9FC1E2FF030EE66E9CC100F060
:10046A009DC101F0EEDE08D0010E0201035F000E0D
:10047A00045B055B065BDED7C9CF00F20101FF51C1
:10048A00000A02E1C58A01D0C59A9E96C588FCC0B9
:10049A0003F2FDC004F2FEC005F2FFC006F29EB6EA
:1004AA0020D00001FC51FD11FE11FF1119E00201DB
:1004BA0003510411051106110CE19EC1E1FF9FC110
:1004CA00E2FF030EE66E9CC100F09DC101F0B9DEA9
:1004DA0008D0010E0201035F000E045B055B065B98
:0804EA00DED700C200F0120091
:1004F2009E96FFC1C9FFFCC003F2FDC004F2FEC01C
:1005020005F2FFC006F2C7A422D00001FC51FD1182
:10051200FE11FF111BE00201035104110511061126
:100522000EE19EC1E1FF9FC1E2FF040EE66E9CC197
:1005320000F09DC101F089DE010E006E3BD0010E7C
:100542000201035F000E045B055B065BDCD7FCC0A7
:1005520003F2FDC004F2FEC005F2FFC006F29EB631
:1005620022D00001FC51FD11FE11FF111BE002011E
:1005720003510411051106110EE19EC1E1FF9FC155
:10058200E2FF040EE66E9CC100F09DC101F05DDE4B
:10059200010E006E0FD0010E0201035F000E045B1C
:1005A200055B065BDCD7C5BC02D0006A03D0C584FC
:0605B200020E006E1200B3
:1005B8001AC103F21BC104F21CC105F21DC106F2E7
:1005C800A19A6686A1BA20D001011A511B111C11EB
:1005D8001D1119E0020103510411051106110CE166
:1005E800B3C1E1FFB4C1E2FF030EE66EB1C100F092
:1005F800B2C101F027DE08D0010E0201035F000E30
:10060800045B055B065BDED76ACF00F20101FF5190
:10061800000A02E1668A01D0669AA19A66881AC120
:1006280003F21BC104F21CC105F21DC106F2A1BAF6
:1006380020D001011A511B111C111D1119E00201D2
:1006480003510411051106110CE1B3C1E1FFB4C156
:10065800E2FF030EE66EB1C100F0B2C101F0F2DDB7
:1006680008D0010E0201035F000E045B055B065B08
:08067800DED700C200F0120001
:0A068000000E86B2010E006E12009B
:0A068A00000E82B6010E006E120091
:0A069400000E82B8010E006E120085
:10069E001AC103F21BC104F21CC105F21DC106F200
:1006AE00668266A220D001011A511B111C111D1168
:1006BE0019E0020103510411051106110CE1B3C139
:1006CE00E1FFB4C1E2FF060EE66EB1C100F0B2C1A9
:1006DE0001F0B5DD08D0010E0201035F000E045BD0
:0806EE00055B065BDED712007C
:0406F6006684120004
:1006FA00FCC005F2FDC006F2FEC007F2FFC008F218
:10070A000201036B046B0451120802E103518E08C3
:10071A0008E3A3DD005201E004D00201034B042BDD
:10072A00F2D70201120E045D02E18F0E035D03E3AC
:10073A007B0E006E26D0C580C5A022D00001FC51D8
:10074A00FD11FE11FF111BE00201055106110711EF
:10075A0008110EE19EC1E1FF9FC1E2FF050EE66EA0
:10076A009CC100F09DC101F06CDD010E006E09D044
:10077A00010E0201055F000E065B075B085BDCD712
:04078A00006A1200EF
:10078E00A19AFFC16AFF1AC103F21BC104F21CC178
:10079E0005F21DC106F268A422D001011A511B11E7
:1007AE001C111D111BE0020103510411051106114C
:1007BE000EE1B3C1E1FFB4C1E2FF040EE66EB1C1BA
:1007CE0000F0B2C101F03BDD010E006E3BD0010E18
:1007DE000201035F000E045B055B065BDCD71AC1EA
:1007EE0003F21BC104F21CC105F21DC106F2A1BA2F
:1007FE0022D001011A511B111C111D111BE0020107
:10080E0003510411051106110EE1B3C1E1FFB4C18C
:10081E00E2FF040EE66EB1C100F0B2C101F00FDDD1
:10082E00010E006E0FD0010E0201035F000E045B7D
:10083E00055B065BDCD766BC02D0006A03D066841B
:06084E00020E006E120014
:10085400FCC003F2FDC004F2FEC005F2FFC006F2C4
:10086400C582C5A220D00001FC51FD11FE11FF116B
:1008740019E0020103510411051106110CE19EC196
:10088400E1FF9FC1E2FF060EE66E9CC100F09DC130
:1008940001F0DADC08D0010E0201035F000E045BF4
:0808A400055B065BDED71200C4
:0408AC00C5841200ED
:0A08B000000E86B4010E006E120067
:0A08BA00000E82B8010E006E12005D
:0A08C400000E80B4010E006E120059
:0A08CE00000E84B6010E006E120049
:0A08D800000E82BE010E006E120039
:0A08E200000E82BC010E006E120031
:0A08EC00000E82B6010E006E12002D
:0A08F600000E82BA010E006E12001F
:0A090000000E86B0010E006E12001A
:0A090A00000E81B4010E006E120011
:0A091400000E84B4010E006E120004
:0A091E00000E82B6010E006E1200FA
:0A092800000E82B8010E006E1200EE
:10093200640E0101986F020E996F000E9A6F000EFD
:100942009B6FFA0EA06F060EA16F000EA26F000E33
:10095200A36F540EA86F080EA96F000EAA6F000EA7
:10096200AB6F2A0EA46F040EA56FFF0EA66F010EC9
:10097200A76FF20EE26F040EE36FFF0EE46F010E3B
:10098200E56FAC0EDE6F080EDF6F000EE06F000E3B
:10099200E16F949894968B988B9694889486C79ED0
:0809A200C79C380EC66E12005E
:1009AA00086A096A100E0C6E0134083609360450BA
:1009BA00085E0550D8A0053C095ED8B007D004509F
:1009CA0008260550D8B0053C0926D89000360136CD
:0609DA000C2EEAD712000A
:1009E0007C0E0101C16F010EC26F090EC36F020EB2
:1009F000C46F640ECD6F030ECE6F000ECF6F000E6E
:100A0000D06F940EC96F030ECA6F000ECB6F000E2D
:100A1000CC6F8A0EC56F030EC66F000EC76F000E37
:100A2000C86FAC8A900EAB6E948E949C9EAA03D035
:080A3000AECF00F0FBD712006D
:100A38006C0E0101C16F010EC26F090EC36F020E69
:100A4800C46F760ECD6F030ECE6F000ECF6F000E03
:100A5800D06F7E0EC96F020ECA6F000ECB6F000EEC
:100A6800CC6F880EC56F020EC66F000EC76F000EE2
:100A7800C86F0F01218B900E226F98849892A4AAB8
:0A0A880003D01DCF00F0FBD71200D1
:100A92000101F76BF86BBDC100F0BEC101F026EC9D
:100AA20001F000C0F7F1000E0101F86FF7C100F08C
:060AB200F8C101F0120082
:100AB8000201016B026BF8C1FDF1F9C1FEF1F7C14A
:100AC80000F0003600900080DCC1E1FFDDC1E2FFEC
:100AD80000C0E6FFDAC100F0DBC101F026EC01F04E
:100AE800005002010113000E0213010E0101FA5F0A
:100AF800000EFB5BFA51FB1116E0B7C1E1FFB8C16C
:100B0800E2FF010EE66EB5C100F0B6C101F026ECB9
:100B180001F0FDC1E1FFFEC1E2FF00C0E6FF0101F7
:100B2800FD4BFE2BE2D7B7C1E1FFB8C1E2FFE66A91
:100B3800B5C100F0B6C101F026EC01F0FDC1E1FF3E
:100B4800FEC1E2FF00C0E6FF0101FC51000A06E118
:100B5800D2C100F0D3C101F026EC01F00101FC5133
:100B6800010A06E1D6C100F0D7C101F026EC01F078
:0A0B780001C200F002C201F01200F9
:100B8200D00E0C6EC90E0D6E0D2EFED70C2EFCD79C
:060B92000000000012004B
:100B98000201016B026BF8C1FDF1F9C1FEF1F7C169
:100BA80000F000360090DCC1E1FFDDC1E2FF00C0CB
:100BB800E6FFDAC100F0DBC101F026EC01F00050DD
:100BC80002010113000E0213FAC100F0FBC101F08B
:100BD800010E0101FA5F000EFB5B0050011019E0E5
:100BE800DCC1E1FFDDC1E2FFFDC1E9FFFEC1EAFFB3
:100BF800EECFE6FFDAC100F0DBC101F026EC01F030
:100C0800005002010113000E02130101FD4BFE2BDF
:100C1800DBD7FC51000A06E1D2C100F0D3C101F0D4
:100C280026EC01F00101FC51010A06E1D6C100F0F1
:100C3800D7C101F026EC01F001C200F002C201F0B8
:020C4800120098
:100C4A00F0C1F3F1F1C1F4F1F2C1F5F10BD0A00E4C
:100C5A00C86E6ADE44D0280EC86E66DE40D0040E26
:100C6A00006E3FD0F3C1F6FFF4C1F7FFF5C1F8FFFC
:100C7A000900F5CF01F00900F5CF02F00900F5CF20
:100C8A0003F00900F5CF04F00450000A08E103500C
:100C9A00010A05E10250860A02E10150A00AD7E0E2
:100CAA00F3C1F6FFF4C1F7FFF5C1F8FF0900F5CF6C
:100CBA0001F00900F5CF02F00900F5CF03F00900B1
:100CCA00F5CF04F00450000A08E10350060A05E1D2
:100CDA0002501A0A02E10150800ABDE0C0D7000E94
:040CEA00006E120086
:100CEE00F0C1F6FFF1C1F7FFF2C1F8FF0900F5CF31
:100CFE00BDF10900F5CFBEF10900F5CFBFF1090036
:100D0E00F5CFC0F1040E0101F025F66E000EF121B3
:100D1E00F76E000EF221F86E0900F5CFD2F1090040
:100D2E00F5CFD3F10900F5CFD4F10900F5CFD5F108
:100D3E00080EF025F66E000EF121F76E000EF22170
:100D4E00F86E0900F5CFD6F10900F5CFD7F10900FD
:100D5E00F5CFD8F10900F5CFD9F10C0EF025F66ECE
:100D6E00000EF121F76E000EF221F86E0900F5CF9C
:100D7E00DAF10900F5CFDBF10900F5CFDCF109005E
:100D8E00F5CFDDF1100EF025F66E000EF121F76EA7
:100D9E00000EF221F86E0900F5CFB5F10900F5CF7E
:100DAE00B6F10900F5CFB7F10900F5CFB8F1120091
:100DBE00300E0101F025006E000EF121016E000EC5
:100DCE00F221026E1C0E0024F66E000E0120F76E4C
:100DDE00000E0220F86E0900F5CFB9F10900F5CF2B
:100DEE00BAF10900F5CFBBF10900F5CFBCF1120045
:100DFE00AEC1E1FFAFC1E2FFF0C1E9FFF1C1EAFF11
:100E0E00EECFE6FFACC100F0ADC101F026EC01F073
:040E1E00006A120054
:100E220038D00F0120870D0E1F6F040E1E6F218513
:100E320002DE7ED00F012087060E1F6F820E1E6F0C
:100E42002185F9DD75D00F012087030E1F6F400E3B
:100E52001E6F2185F0DD6CD00F012087010E1F6F00
:100E6200A00E1E6F2185E7DD63D00F012087010EE2
:100E72001F6F150E1E6F2185DEDD5AD00F012087F0
:100E82001F6B8A0E1E6F2185D6DD52D0060E006EB4
:100E920059D0000E006E0101F31908E10050F21959
:100EA20005E1120EF11902E1F051C00ABAE0000E9A
:100EB200006EF31908E10050F21905E1250EF1194F
:100EC20002E1F051800AB6E0000E006EF31908E16B
:100ED2000050F21905E14B0EF11902E1F051000A3E
:100EE200B2E0000E006EF31908E10050F21905E1BC
:100EF200960EF11902E1F051000AAEE0000E006E0A
:100F0200F31908E10050F21905E1E10EF11902E1CD
:100F1200F051000AAAE0F351000A08E1F251010A75
:100F220005E1F151C20A02E1F051000AA7E0AED791
:100F320001016C0EAC6F010EAD6F090EAE6F020EA9
:060F4200AF6F006A12000F
:100F480021D0CF0EAF6EAC9447DD6BD0670EAF6E7D
:100F5800AC9442DD66D0CF0EAF6EAC843DDD61D07F
:100F6800670EAF6EAC8438DD5CD0440EAF6EAC84D7
:100F780033DD57D0220EAF6EAC842EDD52D0060E74
:100F8800006E58D00101000E006EF31908E1005000
:100F9800F21905E1120EF11902E1F051C00AD1E08F
:100FA800000E006EF31908E10050F21905E1250E54
:100FB800F11902E1F051800AC9E0000E006EF31940
:100FC80008E10050F21905E14B0EF11902E1F05168
:100FD800000AC1E0000E006EF31908E10050F21992
:100FE80005E1960EF11902E1F051000AB9E0000E90
:100FF800006EF31908E10050F21905E1E10EF1194C
:1010080002E1F051000AB1E0F351000A08E1F2519F
:10101800010A05E1F151C20A02E1F051000AAAE011
:10102800AED77C0EAC6F010EAD6F090EAE6F020E1F
:06103800AF6F006A120018
:10103E0021D0CF0EAF6EAC94CCDC6BD0670EAF6E02
:10104E00AC94C7DC66D0CF0EAF6EAC84C2DC61D080
:10105E00670EAF6EAC84BDDC5CD0440EAF6EAC845C
:10106E00B8DC57D0220EAF6EAC84B3DC52D0060E75
:10107E00006E58D00101000E006EF31908E1005009
:10108E00F21905E1120EF11902E1F051C00AD1E098
:10109E00000E006EF31908E10050F21905E1250E5D
:1010AE00F11902E1F051800AC9E0000E006EF31949
:1010BE0008E10050F21905E14B0EF11902E1F05171
:1010CE00000AC1E0000E006EF31908E10050F2199B
:1010DE0005E1960EF11902E1F051000AB9E0000E99
:1010EE00006EF31908E10050F21905E1E10EF11955
:1010FE0002E1F051000AB1E0F351000A08E1F251A9
:10110E00010A05E1F151C20A02E1F051000AAAE01A
:10111E00AED77C0EAC6F010EAD6F090EAE6F020E28
:06112E00AF6F006A120021
:1011340021D0CF0EAF6EAC9451DC6BD0670EAF6E86
:10114400AC944CDC66D0CF0EAF6EAC8447DC61D07F
:10115400670EAF6EAC8442DC5CD0440EAF6EAC84E0
:101164003DDC57D0220EAF6EAC8438DC52D0060E74
:10117400006E58D00101000E006EF31908E1005012
:10118400F21905E1120EF11902E1F051C00AD1E0A1
:10119400000E006EF31908E10050F21905E1250E66
:1011A400F11902E1F051800AC9E0000E006EF31952
:1011B40008E10050F21905E14B0EF11902E1F0517A
:1011C400000AC1E0000E006EF31908E10050F219A4
:1011D40005E1960EF11902E1F051000AB9E0000EA2
:1011E400006EF31908E10050F21905E1E10EF1195E
:1011F40002E1F051000AB1E0F351000A08E1F251B2
:10120400010A05E1F151C20A02E1F051000AAAE023
:10121400AED77C0EAC6F010EAD6F090EAE6F020E31
:06122400AF6F006A12002A
:10122A00F0C1F3F1F1C1F4F1F2C1F5F10DD0A00E64
:10123A00C86E99EC04F045D0280EC86E99EC04F0FB
:10124A0040D0040E006E3FD0F3C1F6FFF4C1F7FFA1
:10125A00F5C1F8FF0900F5CF01F00900F5CF02F05A
:10126A000900F5CF03F00900F5CF04F00450000A95
:10127A0008E10350010A05E10250860A02E1015021
:10128A00A00AD5E0F3C1F6FFF4C1F7FFF5C1F8FFF4
:10129A000900F5CF01F00900F5CF02F00900F5CFFA
:1012AA0003F00900F5CF04F00450000A08E10350E6
:1012BA00060A05E102501A0A02E10150800ABCE05E
:0812CA00C0D7000E006E1200F7
:1012D2000101F46B050EF45D0AE2F451F225E16EB0
:1012E200000EF321E26E200EE66EF42BF3D7F451DA
:1012F200F225E16E000EF321E26EE66AF407F45184
:10130200F225F56F000EF321F66F0A0E046E000E41
:10131200056EF0C100F0F1C101F0D5EC04F008C097
:1013220000F009C001F0300E0026F5C1E1FFF6C160
:10133200E2FF00C0E6FF0A0E046E000E056EF0C169
:1013420000F0F1C101F0D5EC04F000C0F0F101C0F1
:10135200F1F1000E011802E1000E001801E102D0C5
:06136200F407CDD71200D4
:10136800520E0B6E2B0E0C6E000E0D6E0D2EFED750
:0C1378000C2EFCD70B2EFAD70000120040
:101384005DD00101F1B102D0929401D092840F0199
:1013940025957AD00101F1B102D0969601D09686B6
:1013A40073D00101F1B102D0969401D096846CD02F
:1013B4000101F1B102D0949601D0948665D0010167
:1013C400F1B102D0949801D094885ED00101F1B1BA
:1013D40002D0949A01D0948A57D00101F1B102D07D
:1013E400989001D0988050D00101F1B102D093942B
:1013F40001D0938449D00101F1B102D0989401D075
:1014040098840F01239540D00101F1B102D0989244
:1014140001D098820F01239337D00101F1B102D09A
:10142400949601D0948630D00101F1B102D0949801
:1014340001D0948829D0010E006E28D00101F0510A
:10144400000A9FE0F051010AA5E0F051020AA9E068
:10145400F051030AADE0F051040AB1E0F051050A7D
:10146400B5E0F051060AB9E0F051070ABDE0F051C9
:10147400080AC1E0F051090AC7E0F0510A0ACDE0B8
:0E148400F0510B0AD1E0D7D7000E006E120017
:1014920059D00101F1B102D0929001D092800F0196
:1014A200259176D00101F1B102D0949001D09480BF
:1014B2006FD00101F1B102D0969001D0968068D030
:1014C2000101F1B102D0949601D0948661D001015C
:1014D200F1B102D0949801D094885AD00101F1B1AF
:1014E20002D0949A01D0948A53D00101F1B102D072
:1014F200949201D094824CD00101F1B102D0939028
:1015020001D0938045D00101F1B102D0949E01D067
:10151200948E3ED00101F1B102D0949C01D0948C02
:1015220037D00101F1B102D0949601D0948630D027
:101532000101F1B102D0949801D0948829D0010E12
:10154200006E28D00101F051000AA3E0F051010A17
:10155200A9E0F051020AADE0F051030AB1E0F05106
:10156200040AB5E0F051050AB9E0F051060ABDE0FF
:10157200F051070AC1E0F051080AC5E0F051090A2A
:10158200C9E0F0510A0ACDE0F0510B0AD1E0D7D7F9
:06159200000E006E1200C5
:1015980059D00101F1B102D0929201D092820F018B
:1015A800259376D00101F1B102D0929801D09288AA
:1015B8006FD00101F1B102D0969201D0968268D025
:1015C8000101F1B102D0949601D0948661D0010155
:1015D800F1B102D0949801D094885AD00101F1B1A8
:1015E80002D0949A01D0948A53D00101F1B102D06B
:1015F800949401D094844CD00101F1B102D093921B
:1016080001D0938245D00101F1B102D0949E01D05E
:10161800948E3ED00101F1B102D0949C01D0948CFB
:1016280037D00101F1B102D0949601D0948630D020
:101638000101F1B102D0949801D0948829D0010E0B
:10164800006E28D00101F051000AA3E0F051010A10
:10165800A9E0F051020AADE0F051030AB1E0F051FF
:10166800040AB5E0F051050AB9E0F051060ABDE0F8
:10167800F051070AC1E0F051080AC5E0F051090A23
:10168800C9E0F0510A0ACDE0F0510B0AD1E0D7D7F2
:06169800000E006E1200BE
:10169E00F0C1F2F1F1C1F3F149EC05F0D1C1F7F16E
:1016AE00F20EF86F010EF96F020EFA6F000EFB6F5D
:0816BE00FC6BCCEC05F01200FE
:1016C600F0C1F1F149EC05F0D1C1F7F1F10EF86F77
:1016D600010EF96F010EFA6F000EFB6FFC6BCCEC7E
:1016E60005F0C1EC05F049EC05F0D1C1F7F1F20EB9
:1016F600F86F010EF96F010EFA6F000EFB6FFC6BAF
:0A1706005CEC05F0F2C100F01200E7
:10171000F0C1F3F1F1C1F4F1F2C1F5F10DD0A00E79
:10172000C86E99EC04F045D0280EC86E99EC04F010
:1017300040D0040E006E3FD0F3C1F6FFF4C1F7FFB6
:10174000F5C1F8FF0900F5CF01F00900F5CF02F06F
:101750000900F5CF03F00900F5CF04F00450000AAA
:1017600008E10350010A05E10250860A02E1015036
:10177000A00AD5E0F3C1F6FFF4C1F7FFF5C1F8FF09
:101780000900F5CF01F00900F5CF02F00900F5CF0F
:1017900003F00900F5CF04F00450000A08E10350FB
:1017A000060A05E102501A0A02E10150800ABCE073
:0817B000C0D7000E006E12000C
:1017B80015D0E7C1F0F1E8C1F1F167DE1AD0E7C151
:1017C800F0F1E8C1F1F1E4DE14D0E7C1F0F1E8C1CD
:1017D800F1F1D4DD0ED0010E006E0BD00101E651FF
:1017E800000AE7E0E651010AEAE0E651020AEDE004
:0417F800F2D7120012
:1017FC001CD0E7C1F0F1E8C1F1F1E9C1F2F182DFEF
:10180C001FD0E7C1F0F1E8C1F1F1E9C1F2F107DD58
:10181C0017D0E7C1F0F1E8C1F1F1E9C1F2F125EC23
:10182C0006F00ED0010E006E0BD00101E651000A3D
:10183C00E0E0E651010AE5E0E651020AEAE0F2D7FF
:02184C00120088
:10184E002ED0E7C1F0F1E8C1F1F1E9C1F2F1EAC140
:10185E00F3F11FEC08F031D0E7C1F0F1E8C1F1F17E
:10186E00E9C1F2F1EAC1F3F1A4EC07F026D0E7C129
:10187E00F0F1E8C1F1F1E9C1F2F1EAC1F3F111ECD5
:10188E0007F01BD0E7C1F0F1E8C1F1F1E9C1F2F1C7
:10189E00EAC1F3F148DC11D0010E006E0ED0010149
:1018AE00E651000ACEE0E651010AD6E0E651020A00
:0C18BE00DEE0E651100AE6E0EFD7120071
:1018CA000101EC6BED6BE6C1EEF1E7C1EFF1800EC1
:1018DA00E719006E800E005C02E1000EE65D0BE285
:1018EA00010EEC6F000EED6FE6510008EE6FE7C1D6
:1018FA00EFF1000EEF57EEC1F0F1EFC1F1F1E8C1DF
:10190A00F2F1E9C1F3F1E0DC060EEA6F000EEB6FCB
:10191A00000E006EEB51005C02E1EA51000819E288
:10192A00EA51E825E16EEB51E921E26E010EEA5D2A
:10193A00006E000EEB59016E0050E825E96E015069
:10194A00E921EA6EEECFE6FF010EEA5F000EEB5BDD
:10195A00DFD7E8C1E1FFE9C1E2FF200EE66EEC51F4
:10196A00ED111AE0EA6BEB6BEA51E825E96EEB51EF
:10197A00E921EA6EEE50200A03E1EA4BEB2BF4D799
:10198A00010EEA5F000EEB5BEA51E825E16EEB51CE
:0A199A00E921E26E2D0EE66E120048
:1019A400160E0101F06F8DDE00C0E8F1E6C1E1FF23
:1019B400E7C1E2FF0F0E0014E66E800E0101E81588
:1019C400016E0150000A03E1010E006E01D0006AAD
:0219D4001200FF
:1019D600E6C1E7F149EC05F0D1C1F7F1E70EF86F82
:1019E600010EF96F010EFA6F000EFB6F010EFC6F10
:1019F600CCEC05F0D1C1F7F1E80E0101F86F010E4C
:101A0600F96F020EFA6F000EFB6FFC6B5CEC05F0D3
:101A1600E9C1EAF1000E0101EB6FEAC101F0006ACB
:101A260000C0EAF101C0EBF1E8510012000E01120C
:0A1A360000C0EAF101C0EBF112005C
:101A4000400E0101F06F030EF16F29DE410E01011E
:101A5000F06F830EF16F23DE420E0101F06F670E0F
:101A6000F16F1DDE430E0101F06F4F0EF16F17DEB7
:101A7000440E0101F06FD00EF16F11DE450E010131
:101A8000F06FD00EF16F0BDE460E0101F06F060E07
:101A9000F16F05DE470E0101F06F360EF16FFFDDCD
:101AA000480E0101F06F6F0EF16FF9DD5DDC600E25
:101AB0000101F06F330EF16FF2DD700E0101F06F76
:101AC000040EF16FECDD900E0101F06F030EF16F6B
:101AD000E6DD910E0101F06F500EF16FE0DDA00E1A
:101AE0000101F06F550EF16FDADDC00E0101F06FEC
:101AF000600EF16FD4DDD00E0101F06F290EF16F91
:101B0000CEDDD10E0101F06F7F0EF16FC8DDD20E78
:101B10000101F06FC30EF16FC2DDD70E0101F06F4E
:0A1B2000280EF16FBCDD20DC12007E
:101B2A00090E0B6E1E0E0C6EE40E0D6E0D2EFED7F8
:0C1B3A000C2EFCD70B2EFAD70000120076
:101B4600ECC1D1F1E9C1F0F1EAC1F1F1EBC1F2F179
:101B560077EC06F0E6C1F0F1E7C1F1F1E8C1F2F188
:061B6600DFEC06F01200A6
:101B6C00E6C1E9F1E7C1EAF10D0E0101EB6F0A0ED6
:101B7C00EC6F3AD0E9C1F0F1EAC1F1F1FFEC06F0FB
:101B8C003ED0E9C1E9FFEAC1EAFFEE520AE0E9C141
:101B9C00F0F1EAC1F1F1FFEC06F00101E94BEA2B9F
:101BAC00F0D72DD0E9C1E9FFEAC1EAFFEE520AE015
:101BBC00E9C1F0F1EAC1F1F1FFEC06F00101E94BEA
:101BCC00EA2BF0D70101EB0EF06F010EF16FFFEC79
:101BDC0006F0EC0E0101F06F010EF16FFFEC06F058
:101BEC000ED0060E006E0CD00101E851000AC2E0C6
:101BFC00E851010AC6E0E851020AD4E0F2D7006AC3
:021C0C001200C4
:101C0E00190E0101F06F58DD00C0E6F1030E00144D
:101C1E00016E0150000A0DE0010E0101E615016E84
:101C2E000150000A03E1010E006E04D0020E006E98
:061C3E0001D0006A120053
:101C44000101F06B3EDD00C0E6F1010E0101F06F11
:101C540038DD00C0E7F1020E0101F06F32DD00C093
:101C6400E8F10101E651460A03E0010E006E0DD0D1
:101C7400E751090A03E0010E006E07D0E851820A19
:0C1C840003E0010E006E01D0006A1200A7
:101C90000101E66B070EE76F010EE86F8DDD0101B4
:101CA000E66BE60EE76F200EE86F000EE96FA6DD2B
:101CB000020E0101E66F800EE76F250EE86F000E41
:101CC000E96FEA6FC4DD4C0E0101E66F010EE76FAC
:101CD000020EE86F4BDF090E0B6E1E0E0C6EE40E4B
:101CE0000D6E0D2EFED70C2EFCD70B2EFAD7000052
:021CF0001200E0
:101CF2000900F5CFE6FF0006FBE10106F9E112005B
:101D0200820E0101E66F000EE76F020EE86F2DDF13
:101D1200380E0101E66F000EE76F020EE86F25DF55
:101D2200130E0101F06FCEDC00C095F1020E00141B
:101D3200016E0150000A09E0F10E0101E66F000E8A
:101D4200E76F010EE86F11DF08D0E60E0101E66FC2
:101D5200000EE76F010EE86F08DF140E0101E66F57
:101D620039DE00C096F101C097F100C0E6F101C072
:101D7200E7F1620EE86F010EE96FA6DD620EE66F13
:101D8200010EE76F010EE86FF0DE150E0101E66F3E
:101D9200000EE76F010EE86FE8DE940E0101E66FB8
:101DA200010EE76FFEDD00C061F10050010A08E19B
:101DB2002D0EE66F000EE76F010EE86FD6DE08D03B
:101DC200220E0101E66F000EE76F010EE86FCDDE15
:101DD20094C1E6F1000E0101E76F620EE86F010E99
:101DE200E96F72DD620EE66F010EE76F010EE86FBA
:101DF200BCDE1B0E0101E66F000EE76F010EE86FFD
:101E0200B4DE170E0101E66FE5DD00C096F101C0F8
:101E120097F100C0E6F101C0E7F1620EE86F010E32
:101E2200E96F52DD620EE66F010EE76F010EE86F99
:101E32009CDE0A0E0101E66F010EE76F010EE86FEC
:101E420094DEE4DE00C0B0F10050000A14E00101AB
:101E5200B051010A08E1000EE66F010EE76F010EB4
:101E6200E86F83DE08D0100E0101E66F010EE76F06
:101E7200010EE86F7ADE1A0E0101E66FABDD00C0DB
:101E820096F101C097F100C0E6F101C0E7F1620EE0
:101E9200E86F010EE96F18DD620EE66F010EE76F63
:101EA200010EE86F62DE1E0E0101E66F010EE76FA2
:101EB200020EE86F5ADEF40E0B6E820E0C6E050EE9
:101EC2000D6E0D2EFED70C2EFCD70B2EFAD712005C
:101ED200720E0101E66F200EE76F000EE86FD20E60
:101EE200E96F200EEA6F000EEB6F440EEC6F2ADEF4
:101EF200230EE66F010EE76F020EE86F36DEA1DEFB
:101F02009EDD12DECC0E0101E66F000EE76F020EBF
:061F1200E86F2BDE120057
:0E1F180075EC10F0B9DED9DFF0DEFED7FFD792
:1020EA0010EE15F04C0E006E020E016E260EF66E04
:0E20FA001F0EF76E000EF86E79EC0EF012005D
:061F2600202020207C00B9
:071F2C0020202020207C0092
:0B1F3300204C494748542020207C002F
:0B1F3E0020204441524B2020207C005A
:101F49007C20544F55434820207C202054202D20AC
:101F5900554920207C20414D4249454E54207C2042
:101F6900414C532052414E4745207C2020414C533F
:101F790020554920207C202048414C4C20207C20A1
:0A1F890048414C4C205549207C00D3
:101F93005F5F5F5F5F5F5F5F5F5F5F5F5F5F5F5F4E
:101FA3005F5F5F5F5F5F5F5F5F5F5F5F5F5F5F5F3E
:101FB3005F5F5F5F5F5F5F5F5F5F5F5F5F5F5F5F2E
:101FC3005F5F5F5F5F5F5F5F5F5F5F5F5F5F5F5F1E
:0A1FD3005F5F5F5F5F5F5F5F5F00AD
:101FDD002D2D2D205374617274206D656173757292
:0A1FED00656D656E74202D2D2D002A
:0B1FF7007C2020204E4F2020207C008A
:0B2002007C20205945532020207C004A
:04200D0000000000CF
:0A201100204E4F52544820207C005E
:06201B00202020207C00C3
:0A20210020534F55544820207C0046
:04202B0000000000B1
:05202F002020207C00D0
:102034002D2D2D2D20496E6974616C697A61696F4B
:102044006E20616E6420636F6E6669677572617479
:09205400696F6E202D2D2D200076
:10205D00202D2D2D2053797374656D20496E697473
:05206D00202D2D2D00C7
:10207200980109028A0109025E010902340109027A
:10208200260109025001090242010902A6010902C0
:1020920008020902FA0109022402090216020902CF
:1020A20094020000B2020000A80200009E0200009A
:1020B200F8030000EE030000E40300001604000031
:1020C2000C04000002040000DA030000B203000066
:1020D200FA060000AC08000054080000F204FF01F8
:0420E2002A04FF01CC
:0420E600A0860100CF
:020000040030CA
:0E00000015137F7CF98B91FFFFC0FFE0FF40DE
:00000001FF
